:020000040800F2
:10000000F808002089230008090300080B030008F2
:100010000F03000813030008170300080000000086
:100020000000000000000000000000001B030008AA
:100030001D030008000000001F0300082103000842
:10004000A3230008A3230008A3230008A323000878
:10005000A3230008A3230008A3230008A323000868
:10006000A3230008A3230008A3230008A323000858
:10007000A3230008A3230008A3230008A323000848
:10008000A3230008A3230008A3230008A323000838
:1000900075070008A3230008A3230008A323000872
:1000A000A3230008A3230008A3230008A323000818
:1000B000A3230008DB1E0008A3230008A3230008D5
:1000C000A3230008A3230008A3230008A3230008F8
:1000D000A323000865230008A3230008A323000826
:1000E000A3230008A3230008A3230008A3230008D8
:1000F000A3230008A3230008A3230008A3230008C8
:10010000A3230008A3230008A3230008A3230008B7
:10011000A3230008A3230008A3230008A3230008A7
:10012000A3230008A3230008A3230008A323000897
:1001300000F002F800F03AF80AA090E8000C8244BF
:100140008344AAF10107DA4501D100F02FF8AFF29C
:10015000090EBAE80F0013F0010F18BFFB1A43F0A5
:1001600001031847705A0000905A0000103A24BF4B
:1001700078C878C1FAD8520724BF30C830C144BF0C
:1001800004680C607047000000230024002500264E
:10019000103A28BF78C1FBD8520728BF30C148BFEA
:1001A0000B6070471FB51FBD10B510BD04F01CFBE0
:1001B0001146FFF7F7FF00F009F804F03AFB03B42B
:1001C000FFF7F2FF03BC02F073F8000070B502F015
:1001D00005F800F0B1F901F0E5FF4FF4A06002F07E
:1001E000F3F8472144F61F6001F082FE00F03DFB6A
:1001F0004FF4165002F06AF80323022201213C4812
:1002000000F06CFD042001F087FC052001F0FDFDED
:1002100000F078F900254CE0002000F0A7F900B1CB
:1002200048E0FA2095FBF0F40C2C09DB122C07DADD
:1002300000203049086001202F49C1F8940133E0C3
:10024000122C02D1002400252EE0204604EBD071B0
:100250004910A4EB4101012907D101202749086079
:1002600000202749C1F8A0011EE004EBD4714A1018
:1002700024490978114101F0010131B901201D49DA
:1002800008601D49C1F894010EE004EBD4714A10D6
:100290001C490978114101F0010129B100201549DB
:1002A00008601549C1F89401012001F0D4FF6D1CCC
:1002B00000BFB1E700BF00F0EDFD0E480C3800684C
:1002C00008B9012000E000200A490C39086001F05B
:1002D000ABF80B48D0F8940108B9012000E00020E9
:1002E00004490C39086001F069F8002070BD000075
:1002F00068000020A0812142000023429401234293
:100300000080214225000020704700BFFEE700BFAB
:10031000FEE700BFFEE700BFFEE77047704770478B
:10032000704700000CB50020019000906C480068F8
:1003300040F480306A49086000BF6948006800F4F2
:10034000003000900198401C0190009818B9019865
:10035000B0F5A06FF1D16248006800F4003010B130
:100360000120009001E0002000900098012843D176
:100370005C48006840F010005A4908600846006870
:1003800020F0030008600846006840F002000860A2
:1003900053484068524948600846406848600846EB
:1003A000406840F4806048600846406820F47C1053
:1003B00048600846406840F4E81048600846006815
:1003C00040F08070086000BF4548006800F0007091
:1003D0000028F9D04248406820F0030040494860B6
:1003E0000846406840F00200486000BF3C48406852
:1003F00000F00C000828F9D10CBD10B5FFF792FFF2
:1004000010BD10B53648006840F00100344908605E
:100410000846406834490840314948600846006849
:10042000324908402E4908600846006820F48020C0
:1004300008600846406820F4FE0048604FF41F0042
:100440008860FFF7DAFF4FF000602949086010BDAF
:1004500010B5002100200022214B5B6803F00C0145
:1004600021B1042906D0082928D107E0214B224CCC
:10047000236027E01F4B204C236023E0184B5B6870
:1004800003F47010164B5B6803F48032022303EB15
:10049000904022B9194B4343174C23600DE0104B99
:1004A0005B6803F4003323B1144B4343124C2360C5
:1004B00003E0104B4343104C236003E00D4B0E4C04
:1004C000236000BF00BF064B5B68C3F303130C4CF3
:1004D000E15C094B1B68CB40074C236010BD00005A
:1004E00000100240002002400000FFF8FFFFF6FE6F
:1004F00008ED00E000127A000000002000093D0035
:100500000400002008B50121482002F0E7FA10207D
:100510008DF8030003208DF802002020ADF80000C4
:100520006946044802F01EF82021024802F0C7F88C
:1005300008BD00000018014008B50121442002F068
:10054000CDFA1820ADF8000048208DF80300694668
:100550002C4802F007F80120ADF8000028208DF8A3
:1005600003006946284801F0FDFF08BD10B50446A8
:1005700014B10120254908702448007858B310218F
:10058000204802F082F850B108211E4802F07DF8A0
:1005900028B101211C4802F078F801281BD10A205B
:1005A00001F059FE0020194908701021154802F089
:1005B0006CF808B9012010BD0821124802F065F856
:1005C00008B90220F7E701210F4802F05EF8012880
:1005D00015D10320EFE710210A4802F056F8012850
:1005E0000DD10821074802F050F8012807D1012158
:1005F000054802F04AF810B90120044908700020AB
:10060000D9E7000000180140000801401400002054
:100610002DE9F0418AB004460D4616461F46DDF826
:1006200040800121042002F059FA0121480602F01D
:1006300062FA4FF48050ADF8240003208DF82600B4
:1006400018208DF8270009A9904801F08BFF4FF47E
:100650000060ADF8240048208DF8270009A98B48D8
:1006600001F080FF00208DF81E008DF81F008DF82E
:10067000200001208DF8210000208DF822008DF847
:1006800023008DF81A808DF81B408DF81C608DF8C2
:100690001D50ADF8187006A97D4802F09CFA0020A4
:1006A0008DF812008DF813008DF814004FF40070CF
:1006B000ADF808000020ADF80A00ADF80C00ADF868
:1006C0000E00ADF8100001208DF8150002A802F010
:1006D0000CFB012202216E4802F006FE14208DF868
:1006E000040001208DF8050000208DF8060001208F
:1006F0008DF8070001A801F06CFE00200AB0BDE8EB
:10070000F0812DE9F04186B007460D469046002461
:10071000CDF804804FF40070029000208DF80C009A
:100720008DF80D008DF80E5000BF05E0395D0DF11C
:100730000F000155601C84B2AC42F7DB01A954489C
:1007400002F0C2FB0646002401E0601C84B2314680
:100750004F4802F051FC18B940F6FF708442F4DBB8
:1007600040F6FF70844203DB012006B0BDE8F08153
:100770000020FAE700B585B06A460021444802F03F
:1007800098FC0098A0F2012005284FD2DFE800F085
:10079000030E27344100002005E00DF10B01095C38
:1007A0003C4A1154401C0828F7DB3FE0082007E0D2
:1007B000A0F108010DF10B02515C364A1154401CA6
:1007C0001028F5DB4FF4007208213348FFF799FF3A
:1007D00040F2FF1208213148FFF793FF26E0102076
:1007E00007E0A0F110010DF10B02515C294A1154F0
:1007F000401C1828F5DB19E0182007E0A0F11801CB
:100800000DF10B02515C234A1154401C2028F5DBEA
:100810000CE0202007E0A0F120010DF10B02515C5B
:100820001C4A1154401C2828F5DB00BF00BF05B04E
:1008300000BD30B585B005460021154802F0BCFC6E
:1008400010B9002005B030BD6A460021104802F002
:1008500030FC002404E00DF10B00005D2855641C01
:10086000082CF8D39DF80A00ECE738B500240223E1
:100870000822072100200094FFF7CAFE0648002145
:100880000160416005480160416038BD00080140D9
:100890000064004040000020150000201D000020E2
:1008A00010B50278521ED206110E4A1CEE4B9A5C0D
:1008B0005B5C42EA03228260D0E90223D21AEB4B4E
:1008C0009A4202DA8269521C8261D0E90223D21A6A
:1008D00041F270739A4202DD8269521E826182681F
:1008E000C2608369C3EB433382681A448260CA1CC6
:1008F000DD4B9B5C8A1CDC4CA25C43EA0222838BAE
:100900005A4312B28280B0F910308268D21AC36999
:100910005A43426110BD70B504460E4614F5804F2F
:1009200000DAD34CB4F5804F01DD4FF480443568D4
:1009300000220221CF4802F0D7FC042D09DCC4F3C9
:100940000721681ECC4A02F810104000401C1454C5
:1009500008E0C4F30721681FC84A02F810104000DD
:10096000401C145401220221C24802F0BDFC70BD9B
:100970002DE9F04F85B082460C462046FFF790FFE8
:10098000B4F90400AAEB0009608C484400B260840A
:10099000484604F0C6FACDE90001D4E90C733A46A2
:1009A00004F012FB054603F0B3FF8346B4F92200BE
:1009B00004F0B7FACDE90001D4E90E532A4604F059
:1009C00003FB074603F0A4FF0490B4F92410A9EB3D
:1009D000010004F0A6FA0746D4E910532A4604F0B1
:1009E000F3FACDE9000103F093FF0390E06904F00E
:1009F00031FF07465846049904F0E0FD804603990C
:100A000004F0DCFD0646394604F070FF054604F0AC
:100A100005FF02900FFA89F0A08421460298FFF7A3
:100A20007AFF05B0BDE8F08F2DE9F34F8BB00C468F
:100A30000B9804F097FD05464FF06632904B04F09A
:100A4000C3FA00228F4BCDE9060104F0BDFA074638
:100A500000228D4B04F0DEF8824604F033FA099050
:100A600061690998A0EB0109E08C484400B2E08478
:100A7000B4F9260004F055FA0546D4E914733A4651
:100A800004F0A2FACDE90401B4F92810A9EB0100A1
:100A900004F047FA0746D4E916532A4604F094FABC
:100AA00082468B46484604F03CFA0746D4E9125386
:100AB0002A4604F089FA52465B46CDE9000103F06C
:100AC00059FFCDE90201DDE9042303F053FFCDE92D
:100AD000060104F0F7F9089021460898FFF748FF4F
:100AE0000FFA89F02085484604F01BFA21F00041F6
:100AF00005460022654B04F02BFA11D2B4F904002C
:100B000004F00FFA21F0004105460022604B04F08A
:100B10001FFA05D294F82A00401C84F82A0002E04B
:100B2000002084F82A0094F82A00642806DD652055
:100B300084F82A0001200DB0BDE8F08F0020FAE70C
:100B400001600268012A02D00268022A16D100233D
:100B5000504AC0E90C32504B504AC0E90E320023D3
:100B60004F4AC0E910324F4B4F4AC0E912320023BE
:100B7000036543654D4B4E4AC0E916320268032AAD
:100B800018D10022424BC0E90C23434A434BC0E931
:100B90000E230023474AC0E910324FF03333464A50
:100BA000C0E91232454B464AC0E91432454B464A29
:100BB000C0E916320268042A17D10022434BC0E96B
:100BC0000C234FF033333C4AC0E90E320022344B41
:100BD000C0E91023304A3E4BC0E9122300220265CF
:100BE0004265324B324AC0E916320268052A17D1F3
:100BF0000023384AC0E90C324FF033332E4AC0E9A3
:100C00000E320023344AC0E91032234B304AC0E987
:100C10001232002202654265244B254AC0E9163291
:100C20000268012A01D1921EC2610268022A01D122
:100C30000122C2610268032A01D10122C261026855
:100C4000042A01D10122C2610268052A01D10122D0
:100C5000C261704710B504462046FFF721FE208987
:100C600000B2208210BD00004000002090E8FFFF8D
:100C700000C0FFFF00640040150000201D000020A0
:100C80006626334000FFBF400080764000408F4022
:100C900000003440000014409A9999999999A93F0D
:100CA00000002040B81E85EB51B8AE3FFCA9F1D240
:100CB0004D62803F000010403333C33F61325530F6
:100CC0002AA9333F7B14AE47E17A843F00002E40CF
:100CD0009999C93F00003940000024402DE9F041B6
:100CE00004460F4615461E4639462046FFF728FFA4
:100CF000294604F16000FFF723FF314604F1C000EC
:100D0000FFF71EFFAE494FF49A700151AD49001D27
:100D10000151AD48C4F83001AC48C4F83C01AC49BD
:100D20004FF4A2700151AB49001F0151BDE8F081A1
:100D30002DE9F04104460D46A749284604F0ACFCD5
:100D40008046A34904F0D2FD0746A44904F0CEFD35
:100D50000646304604F062FD07462146FFF708FECE
:100D6000304604F05BFD074604F16001FFF700FE2A
:100D7000BDE8F0812DE9F84F04460E46154662693C
:100D8000616F501800EBD0714F10384604F062FDCF
:100D90008246934904F080FC8146904904F07CFC33
:100DA00080469049404604F077FC83464FF08041EE
:100DB00004F09CFD82468C4904F098FD81468B49E5
:100DC00004F094FDC4F820018949284604F08CFE03
:100DD0008146D4F8201104F055FE09D384492846F1
:100DE00004F0ECFB8146D4F8201104F04BFD10D246
:100DF00004F598732A463146D4F8200101F0C0F872
:100E0000814649462046FFF793FF0020C4F8280199
:100E100020E07149284604F03FFC7249009004F03C
:100E200065FD814621464846FFF7FEFD824604F1F6
:100E300060014846FFF7F8FD8346BAF1000F02D182
:100E4000BBF1000F05D00020C4F828010120BDE847
:100E5000F88F00BFD4F82801401CC4F8280141F2E3
:100E60008831D4F82801884204DD481CC4F82801E0
:100E70000120ECE70020EAE710B504462046FFF722
:100E80000FFD04F16000FFF70BFD04F1C000FFF758
:100E900007FD10BD10B55748FFF7DCFE5548603020
:100EA000FFF7D8FE5348C030FFF7D4FE5248FFF793
:100EB000D1FE5248FFF7CEFE10BD2DE9F0410446A9
:100EC0000D464F49284604F011FD8046434904F081
:100ED0000DFD074604F0A2FC064604F1C0013046B1
:100EE000FFF746FDBDE8F0812DE9F84F04468A463C
:100EF0009146D421085904F0ADFC0746384904F066
:100F0000CBFB0646354904F0C7FB05463C4904F0D7
:100F1000C3FBC4F824014FF08041484604F0E4FDCF
:100F20000546D4F8241104F0ADFD0AD34FF08041FA
:100F3000484604F043FB0546D4F8241104F0A2FC13
:100F400018D204F59E734A465146D4F8240101F0A4
:100F500017F8009004F006FB07460022294B03F027
:100F600059FE054603F0D4FC834659462046FFF758
:100F7000A4FF22E02249484604F0B8FC064604F1EA
:100F8000C0013046FFF750FD05462DB10020C4F8E2
:100F90002C010120BDE8F88FD4F82C01401CC4F8C6
:100FA0002C0141F28831D4F82C01884204DD002064
:100FB000C4F82C010120EDE700BF0020EAE70000A3
:100FC0000000964300007A44000048440000B44208
:100FD000000070420000F0413E4F6043A73299414B
:100FE000B005B6410000B443D00F4940CDCC0E420D
:100FF0000000964268000020B00100202802002076
:10100000FF21A9400000184070B50446002519E0F2
:10101000F9490020FFF7ACFCF74960310020FFF7E9
:10102000A7FCF549C0310020FFF7A2FCF3490020DE
:10103000FFF79EFCF2490020FFF79AFC012001F027
:101040000AF96D1CA542E3DB70BD10B514E0EA4956
:101050000020FFF78DFCE84960310020FFF788FC95
:10106000E549C0310020FFF783FCE4490020FFF789
:101070007FFC012001F0EFF8E249E34800F047FE71
:101080000028E4D000F0BBFE14E0DB490020FFF7AD
:101090006FFCD94960310020FFF76AFCD649C031A6
:1010A0000020FFF765FCD5490020FFF761FC012017
:1010B00001F0D1F8D549D34800F029FE0028E4D04A
:1010C00000F097FE4FF4FA70FFF79EFF10BD10B5C9
:1010D00014E0C9490020FFF74BFCC74960310020EC
:1010E000FFF746FCC449C0310020FFF741FCC4496A
:1010F0000020FFF73DFC012001F0ADF8C449C548D0
:1011000000F03AFD0028E4D000F0C1FD4FF4FA7081
:10111000FFF77AFF10BD10B514E0B7490020FFF7C4
:1011200027FCB54960310020FFF722FCB249C031ED
:101130000020FFF71DFCB2490020FFF719FC012039
:1011400001F089F8B449B34800F016FD0028E4D056
:1011500000F08BFD4FF47A70FFF756FF00F08BFD27
:101160004FF4FA70FFF750FF14E0A3490020FFF797
:10117000FFFBA14960310020FFF7FAFB9E49C03117
:101180000020FFF7F5FB9E490020FFF7F1FB01204F
:1011900001F061F89E49A04800F0EEFC0028E4D080
:1011A00000F075FD4FF4FA70FFF72EFF10BD10B57B
:1011B00014E091490020FFF7DBFB8F4960310020EC
:1011C000FFF7D6FB8C49C0310020FFF7D1FB8C49DB
:1011D0000020FFF7CDFB012001F03DF88E498D483E
:1011E00000F0CAFC0028E4D000F03FFD4FF47A7014
:1011F000FFF70AFF00F03FFDC820FFF705FF00F0F2
:101200004CFD4FF47A70FFF7FFFE00F034FD4FF411
:10121000FA70FFF7F9FE14E077490020FFF7A8FB0A
:10122000754960310020FFF7A3FB7349C0310020EE
:10123000FFF79EFB72490020FFF79AFB012001F0A7
:101240000AF87349744800F097FC0028E4D000F0D5
:101250001EFD4FF4FA70FFF7D7FE10BD10B54FF426
:10126000FA70FFF7D1FE14E063490020FFF780FB1E
:10127000614960310020FFF77BFB5F49C0310020EE
:10128000FFF776FB5E490020FFF772FB012000F0BC
:10129000E2FF6249624800F06FFC0028E4D000F0F1
:1012A000E4FC4FF47A70FFF7AFFE00F0EAFC4FF475
:1012B000FA70FFF7A9FE10BD10B514E04E490020EA
:1012C000FFF756FB4C4960310020FFF751FB4A49BC
:1012D000C0310020FFF74CFB48490020FFF748FBD6
:1012E000012000F0B8FF4749474800F010FD0028F2
:1012F000E4D000F084FD14E03F490020FFF738FB04
:101300003D4960310020FFF733FB3B49C0310020ED
:10131000FFF72EFB39490020FFF72AFB012000F0E0
:101320009AFF3A49374800F0F2FC0028E4D000F078
:1013300060FD4FF4FA70FFF767FE14E02E490020BD
:10134000FFF716FB2C4960310020FFF711FB2A49FB
:10135000C0310020FFF70CFB28490020FFF708FBF5
:10136000012000F078FF2849284800F0D0FC002830
:10137000E4D010BD10B514E01F490020FFF7F8FAC3
:101380001D4960310020FFF7F3FA1B49C0310020EE
:10139000FFF7EEFA19490020FFF7EAFA012000F002
:1013A0005AFF2049084600F0B2FC0028E4D04FF470
:1013B000FA70FFF729FE00F022FD10BD00F061FC7D
:1013C00000F01DFD02E00120FFF71EFEFBE710B557
:1013D000002407E004EB4401074A02EB4110FFF749
:1013E0005FFA641C032CF5DB0448FFF759FA044844
:1013F000FFF756FA10BD000068000020B001002081
:10140000280200200000204300005C43000020412F
:10141000CDCC4C3E000048430000F44233334C43F3
:1014200000007243008084432DE9F04F8DB0002509
:1014300000261AE0FE49002000F09EFB0546FC490C
:10144000002000F064FC0646FA490020FFF790FAFD
:10145000F84960310020FFF78BFAF649C0310020CF
:10146000FFF786FA012000F0F6FE002DE2D0002EF4
:10147000E0D00025002616E0EF4A0021ED48FFF7F6
:1014800079FC0546ED4A0021EA48FFF72DFD0646A6
:10149000EB490020FFF76CFAEA490020FFF768FAF1
:1014A000012000F0D8FE002DE6D0002EE4D000246C
:1014B00014E0E549DF48FFF73BFCDE49C03100207E
:1014C000FFF756FADE490020FFF752FADD49002007
:1014D000FFF74EFA012000F0BEFE641CB4F5FA7F5F
:1014E000E7DB00F0C8FB002004900027804600BF27
:1014F00007E0D6490978014101F001010BAA115416
:10150000401C0628F5DB002428E00BA8005D01281C
:1015100011D1204603F005FD0022CD4BCDE900019D
:1015200003F052FDCDE9020103F0F2F908A941F8F8
:1015300027007F1C11E0204603F0F3FC0022C44B7F
:10154000CDE9000103F040FDCDE9020103F0E0F92F
:1015500005A941F8280008F10108641C062CD4DB19
:10156000002490E02CBB13E0B2490020FFF700FA02
:10157000B04960310020FFF7FBF9B1490020FFF7C7
:10158000F7F9B0490020FFF7F3F9012000F063FEFE
:1015900008A951F82400A94904F010F883465A46D6
:1015A000A649A448FFF7A0FC0028DDD0FFF78FFD77
:1015B00068E0012C33D10025002629E008A951F864
:1015C00024009E4903F0FAFF8346611E08AA52F8E0
:1015D00021009A4903F0F2FF5A46014603909548CC
:1015E000FFF782FC054692499A4800F0C5FA064684
:1015F00090490020FFF7BCF98E4960310020FFF7C9
:10160000B7F990490020FFF7B3F9012000F023FE5D
:10161000002DD3D0002ED1D0FFF77DFD32E0002584
:10162000002629E008A951F82400844903F0C6FFE8
:101630008346611E08AA52F82100804903F0BEFFCC
:101640005A46014603907B48FFF74EFC0546784911
:10165000804800F091FA064676490020FFF788F9A5
:10166000744960310020FFF783F976490020FFF7C5
:101670007FF9012000F0EFFD002DD3D0002ED1D056
:10168000FFF795FD641C032CFFF66CAF00246CE0A3
:10169000A4BB002500262AE005A951F824006E49C4
:1016A00003F08CFF6549029003F088FF834663488E
:1016B0000A9903F083FF5A46014603905D48FFF7FD
:1016C00013FC05465A49634800F056FA0646594944
:1016D0000020FFF74DF9574960310020FFF748F926
:1016E00058490020FFF744F9012000F0B4FD002D17
:1016F000D2D0002ED0D0FFF7DFFD35E0FFE713E0BA
:101700004C490020FFF734F94A4960310020FFF7C7
:101710002FF94B490020FFF72BF94A490020FFF72A
:1017200027F9012000F097FD05A951F824004A4946
:1017300003F044FF4149029003F040FF8346611EDD
:1017400005AA52F82100444903F038FF3B490290B2
:1017500003F034FF5A46014603903648FFF7C4FBB6
:101760000028CDD0FFF7A8FD641C032C90DB0025DA
:101770000026A946AA4621E03749079803F01EFF34
:1017800083462E4903F01AFF0446344A214629486D
:10179000FFF7AAFB0546324A27492648FFF7EAFA2F
:1017A00006463049224800F0E7F981462E492F4885
:1017B00000F0ADFA8246012000F04DFD002DDBD097
:1017C000002ED9D0B9F1000FD6D0BAF1000FD3D086
:1017D000002414E026491748FFF7AAFA1549C0313A
:1017E0000020FFF7C5F816490020FFF7C1F815499A
:1017F0000020FFF7BDF8012000F02DFD641CB4F5BA
:10180000FA7FE7DBFFF72AFD36E00A490020FFF701
:10181000AFF8084960310020FFF7AAF80849002016
:10182000FFF7A6F807490020FFF7A2F8012021E002
:1018300000004843680000200040D3C49A99B14298
:10184000B0010020280200200000A0C225000020D6
:1018500000004240CDCC4C3E000034430040CB431E
:101860000000F043000072430080844300005C43AA
:101870000000A04200F0EFFC994A9A499A48FFF70D
:1018800033FB0028C1D0FFF775FD0025002616E0C8
:10189000964A97499448FFF76DFA0546954A90494C
:1018A0009148FFF721FB064693490020FFF760F8B7
:1018B00092490020FFF75CF8012000F0CCFC002DDD
:1018C000E6D0002EE4D00DB0BDE8F08F70B5002456
:1018D00000251AE08A49002000F04EF904468849A4
:1018E000002000F014FA05467F490020FFF740F879
:1018F0007D4960310020FFF73BF87B49C031002073
:10190000FFF736F8012000F0A6FC002CE2D0002DF5
:10191000E0D013E074490020FFF72AF872496031E3
:101920000020FFF725F874490020FFF721F87349DC
:101930000020FFF71DF8012000F08DFC714A002106
:101940006948FFF7D1FA0028E4D070BD10B500F067
:101950009EF94FF47A70FFF757FB00F086F94FF4C9
:101960007A70FFF751FB00F086F94FF47A70FFF7B9
:101970004BFB00F08CF94FF47A70FFF745FB10BD7C
:101980002DE9F05F002500261AE05D49002000F0F7
:10199000F3F805465A49002000F0B9F906465249C5
:1019A0000020FEF7E5FF504960310020FEF7E0FF20
:1019B0004D49C0310020FEF7DBFF012000F04BFC59
:1019C000002DE2D0002EE0D00025002616E04E4A81
:1019D00000214548FFF7CEF905464C4A0021424810
:1019E000FFF782FA064644490020FEF7C1FF43494B
:1019F0000020FEF7BDFF012000F02DFC002DE6D0F9
:101A0000002EE4D0002414E041493748FFF790F954
:101A10003549C0310020FEF7ABFF37490020FEF703
:101A2000A7FF36490020FEF7A3FF012000F013FCBA
:101A3000641CB4F5FA7FE7DB00F01DF900244AE0EE
:101A400014B9FFF744FB3AE00027B8462FE004EB57
:101A5000C401880003F0FEFE83462C4903F0AEFD6E
:101A60008146611E01EBC101880003F0F3FE83464D
:101A7000264903F0A3FD82464A4651461A48FFF71D
:101A800033FA07461E49234800F076F88046164987
:101A90000020FEF76DFF144960310020FEF768FF5B
:101AA00016490020FEF764FF012000F0D4FB002F50
:101AB000CDD0B8F1000FCAD0FFF72DFB00BF07E073
:101AC0000020FEF753FD00B103E00120FFF79CFA70
:101AD000F6E700BF641C062CB2DBBDE8F09F0000F7
:101AE000F403F6430040CB43680000200000E643C7
:101AF0000000F043F483F743B001002028020020E7
:101B0000000048430000B4420040D3C49A99B14257
:101B10000000A0C2CDCC4C3E10B504462146624820
:101B2000FFF70EF844F69C21604802F001FE44F6EF
:101B30009C205D4908665E4848665E495A48C16611
:101B40005D49816610BD2DE9F04104465B492046A0
:101B500003F0A2FD07465A4903F0C8FE064659495C
:101B600003F0C4FE0546284603F058FE06464E49DB
:101B7000FEF7FEFEBDE8F0812DE9FC5F05460C4650
:101B80005149204603F088FD82464FF0804103F022
:101B900083FD81464D4903F07FFD80464C4903F0AB
:101BA000A5FE07464049486903F054FE49490090A4
:101BB00003F072FD8346434903F06EFD44490190F2
:101BC00003F06AFD82464FF0804103F08FFE8146AC
:101BD0003E4903F08BFE80463B4903F087FE0646F4
:101BE0003D49204603F080FF8046314603F04AFF1E
:101BF00008D33949204603F0E1FC8046314603F022
:101C000041FE0AD2284B643322462946304600F072
:101C1000B7F98046FFF797FF0EE023493846FEF7F5
:101C200003FF8046B8F1000F05D000201E49086769
:101C30000120BDE8FC9F00BF1B48006F401C1A49F3
:101C400008670846006F41F28831884204DD0020B1
:101C5000154908670120ECE70020EAE710B50446C3
:101C6000A1B2124802F064FD10BD10B544F2E75075
:101C7000FFF7F4FF10BD10B544F21370FFF7EEFF4D
:101C800010BD10B544F60710FFF7E8FF10BD10B502
:101C900044F26F50FFF7E2FF10BD10B544F2BA50A6
:101CA000FFF7DCFF10BD0000B00100200004004081
:101CB000008022440000E14300007A435A141D438F
:101CC00000007042A73299410000C841D00F49403E
:101CD0000000B443B005B6410000A0402DE9F0413A
:101CE00004465A49204603F0D7FC0746584903F0FA
:101CF000FDFD0646574903F0F9FD0546284603F069
:101D00008DFD06465449FEF733FEBDE8F0812DE90E
:101D1000FC5F05460C465149204603F0BDFC824657
:101D20004FF0804103F0B8FC81464D4903F0B4FC0C
:101D300080464C4903F0DAFD07464749486903F0FD
:101D400089FD4949009003F0A7FC8346414903F00F
:101D5000A3FC4449019003F09FFC82464FF0804170
:101D600003F0C4FD81463E4903F0C0FD80463B4977
:101D700003F0BCFD06463D49204603F0B5FE804613
:101D8000314603F07FFE08D33849204603F016FCA5
:101D90008046314603F076FD0AD22F4B603322464F
:101DA0002946304600F0ECF88046FFF797FF0EE03A
:101DB00029493846FEF738FE8046B8F1000F05D0B5
:101DC00000202549C8660120BDE8FC9F00BF2248CD
:101DD000C06E401C2049C8660846C06E41F288317A
:101DE000884204DD00201C49C8660120ECE7002081
:101DF000EAE710B510211E4800F061FC10BD10B5D7
:101E000010211B4800F05DFC10BD38B5044621468A
:101E10001148FEF795FE0121402000F05FFE1020E2
:101E2000ADF800008DF8030003208DF8020069462C
:101E30000F4800F097FBFFF7DCFF0E4806490866E5
:101E40000D49054881660D49416638BD5A141D4348
:101E500000007042A7329941280200200000C841CA
:101E6000D00F49400000B443B005B6410000A04087
:101E7000001801400000FA43000096430000484368
:101E80007FB505460C460121022000F034FEADF876
:101E90000850ADF804400020ADF80A00ADF8060087
:101EA00001A9344801F04EFE01221146314802F0EA
:101EB000C0F91D208DF8000000208DF801000320DE
:101EC0008DF8020001208DF80300684600F081FAC9
:101ED0000121284802F092F97FBD10B50121254863
:101EE00002F055FC18B10121224802F061FC10BD3E
:101EF00030B589B005460C460121022000F0FBFDFB
:101F00000121092000F0EAFD01211B4800F0FBFB44
:101F10002020ADF8200018208DF8230003208DF834
:101F2000220008A9154800F01DFBADF81850ADF8C7
:101F300014400020ADF81A00ADF8160005A90D48B0
:101F400001F000FE7020ADF804000120ADF806009D
:101F50000020ADF80C0001A9064801F072FE08212E
:101F6000044802F084FA0121024802F047F909B05E
:101F700030BD00000004004000081A00000C0140C1
:101F80002DE9FF4F8BB0894692461C465146484684
:101F900003F078FC7ED86168084603F0A7FC494648
:101FA00004900B9803F0A0FD03904FF0804021684F
:101FB00003F09CFC0290039903F098FC834604997B
:101FC00003F0FCFA059003F0CDFACDE9060102F02A
:101FD00078FCCDE9080102F09BFC0646A768616821
:101FE000084603F083FC514604900B9803F07CFDF7
:101FF0000290206880F000404FF08041019003F093
:1020000075FC8346029903F071FC0390049903F078
:10201000D5FA059003F0A6FACDE9060102F051FCCD
:10202000CDE9080102F074FC804649460B9803F0A4
:1020300029FC01D26568B0E049460B9803F022FD07
:1020400024D851460B9803F01DFC1FD8404603F0DE
:1020500089FACDE90201384603F084FACDE900019E
:10206000DDE9022302F00CFCCDE90601304603F065
:1020700079FACDE90401DDE9062302F001FCCDE99E
:10208000080102F045FC054687E003E0606880F047
:10209000004582E06168084603F028FC4946059047
:1020A0000B9803F021FD0390206880F000404FF072
:1020B0008041019003F01AFC0290039903F016FC92
:1020C0000490059903F07AFA834603F04BFACDE9C0
:1020D000060102F0F6FB81F00041CDE9080102F0B3
:1020E00017FC0646A06880F000476168084603F0C8
:1020F000FDFB514605900B9803F0F6FC03904FF062
:102100008040216803F0F2FB0290039903F0EEFB9C
:102110000490059903F052FA834603F023FACDE9BF
:10212000060102F0CEFB81F00041CDE9080102F08A
:10213000EFFB804649460B9803F0A4FC03D260688D
:1021400080F0004529E049460B9803F09BFB23D81B
:1021500051460B9803F096FC1ED8404603F002FA55
:10216000CDE90201384603F0FDF9CDE90001DDE9D2
:10217000022302F064FBCDE90601304603F0F2F9D8
:10218000CDE90401DDE9062302F059FBCDE90801A0
:1021900002F0BEFB054600E0656828460FB0BDE8CA
:1021A000F08F000008B50121082000F097FC4FF4E3
:1021B0008070ADF8000010208DF8030003208DF82A
:1021C00002006946044800F0CDF94FF480710248DE
:1021D00000F077FA08BD0000000C014010B56FF068
:1021E000040000F040F92E4800682E49B0FBF1F0E1
:1021F0002D4908700846007800EB4001C1EBC01083
:102200004FF6FF7101EAC0002849088010BD014661
:10221000254A12784A434FF0E0235A6100229A611E
:102220001A46126942F001021A6100BF4FF0E02223
:10223000106900F001021AB100F48032002AF5D0D2
:102240004FF0E022126922F001024FF0E0231A6100
:1022500000229A6170470146144A12884A434FF09F
:10226000E0235A6100229A611A46126942F0010283
:102270001A6100BF4FF0E022106900F001021AB1AC
:1022800000F48032002AF5D04FF0E022126922F0EB
:1022900001024FF0E0231A6100229A6170470000AA
:1022A0000000002000127A002600002028000020F4
:1022B00000BF704700BF314A128802F04002002A76
:1022C000F9D0C2B22D4B1B1D1A80704710B586B0D5
:1022D0000446012144F2040000F000FC4FF40070B9
:1022E000ADF8140003208DF8160018208DF81700A3
:1022F00005A9234800F036F94FF48060ADF81400CA
:1023000004208DF8170005A91D4800F02BF92520A1
:102310008DF8000003208DF801008DF802000120E7
:102320008DF80300684600F054F801940020ADF8E1
:102330000800ADF80A00ADF80C00ADF810000C2054
:10234000ADF80E0001A90D4801F067F9012240F235
:1023500025510A4801F0F9F90121084801F0E9F98D
:1023600006B010BD10B5054801F054FA05490870D3
:102370000021024801F0DDF910BD000000380140E5
:10238000000801402500002009488047094800470F
:10239000FEE7FEE7FEE7FEE7FEE7FEE7FEE7FEE715
:1023A000FEE7FEE704480549054A064B7047000072
:1023B0000304000831010008F8020020F80800209A
:1023C000F8040020F804002031490143314A11602B
:1023D000704770B5002100230F22C47804B32D4C40
:1023E000246804F4E064C4F5E064210AC1F1040344
:1023F000CA40447804FA03F1847814402143090167
:10240000254C0678A155047804F01F050124AC4042
:1024100005786D11AD0005F1E025C5F8004109E032
:10242000047804F01F050124AC401C4D0678761199
:1024300045F8264070BD1A4A0A400243154B1B1F3F
:102440001A60704739B1134A121D12680243114BCA
:102450001B1D1A6006E00F4A121D126882430D4BC5
:102460001B1D1A607047042808D14FF0E02109694C
:1024700041F004014FF0E022116107E04FF0E0214C
:10248000096921F004014FF0E0221161704700005A
:102490000000FA050CED00E000E400E080E100E05F
:1024A00080FFFF1F10B50446CC48844208D10121AB
:1024B000042000F02DFB0021042000F029FB46E061
:1024C000C748844208D10121082000F021FB0021E7
:1024D000082000F01DFB3AE0C248844208D10121E7
:1024E000102000F015FB0021102000F011FB2EE061
:1024F000BD48844208D10121202000F009FB0021C1
:10250000202000F005FB22E0B848844208D10121D8
:10251000402000F0FDFA0021402000F0F9FA16E01A
:10252000B348844208D10121802000F0F1FA002153
:10253000802000F0EDFA0AE0AE48844207D1012184
:10254000801500F0E5FA0021A01500F0E1FA10BDB9
:1025500010B50121084600F0DBFA0021012000F04F
:10256000D7FA10BD2DE9F0410246002500260020D3
:1025700000230024002791F803C00CF00F0591F808
:1025800003C00CF0100CBCF1000F03D091F802C096
:102590004CEA050591F800C0BCF1000F31D0146879
:1025A00000202BE04FF0010C0CFA00F3B1F800C052
:1025B0000CEA03069E4220D183004FF00F0C0CFA68
:1025C00003F7BC4305FA03FC4CEA040491F803C08A
:1025D000BCF1280F06D14FF0010C0CFA00FCC2F838
:1025E00014C00AE091F803C0BCF1480F05D14FF0C8
:1025F000010C0CFA00FCC2F810C0401C0828D1D312
:102600001460B1F800C0BCF1FF0F34DD5468002045
:102610002EE000F1080C4FF0010808FA0CF3B1F8B5
:1026200000C00CEA03069E4221D183004FF00F0C3C
:102630000CFA03F7BC4305FA03FC4CEA040491F8D6
:1026400003C0BCF1280F05D100F1080C08FA0CF802
:10265000C2F8148091F803C0BCF1480F07D100F113
:10266000080C4FF0010808FA0CF8C2F81080401C62
:102670000828CED35460BDE8F0814FF6FF71018089
:10268000022181700421C1707047024600209368C6
:102690000B400BB1012000E0002070470146886824
:1026A00080B2704702460020D3680B400BB1012076
:1026B00000E0002070470146C86880B270470161A1
:1026C0007047416170470AB1016100E041617047A4
:1026D000C16070474FF480320A4382618161826138
:1026E00082698269704702460020434B18684FF6A2
:1026F0008073184040EA021008433F4B186070474F
:102700003E49C8617047F0B50A4600230024002105
:10271000002500F00046B6F1004F02D1364EF169B7
:1027200001E0354E7168C0F3034583B200F44016F2
:10273000B6F5401F08D121F070612F4E766826F063
:1027400070662D4F7E6012E000F48016B6F5801F93
:1027500006D1032606FA05F4A14341F0706106E0B4
:10276000460D360103FA06F6B14341F0706122B11D
:10277000460D360103FA06F6314300F00046B6F185
:10278000004F02D11C4EF16101E01B4E7160F0BDA3
:1027900030B500228B071C0F0F2303FA04F2164BEF
:1027A00008338C1053F824309343134C08348D10A5
:1027B00044F8253023468C1053F824308C07240F1E
:1027C00000FA04F423430C4C08348D1044F82530EF
:1027D00030BD0A49DC310860704700000008014044
:1027E000000C01400010014000140140001801409D
:1027F000001C014000200140000001400000204278
:10280000DF48006840F00100DD4908600846406884
:10281000DC490840DA49486008460068DA4908405F
:10282000D74908600846006820F480200860084600
:10283000406820F4FE0048604FF41F008860704735
:10284000CF49096821F48031CD4A116011460968E9
:1028500021F480211160B0F5803F03D0B0F5802FC6
:102860000ED106E0C649096841F48031C44A1160BE
:1028700007E0C349096841F4A021C14A116000E0A2
:1028800000BF00BF704710B50146002200230020A2
:102890004A11012A02D1BA4C236806E0022A02D169
:1028A000B74C236A01E0B64C636A01F01F020124B1
:1028B00094401C400CB1012000E0002010BD38B550
:1028C000002000900024002500BF3120FFF7DBFF2F
:1028D00005460098401C00900098B0F5A06F01D00C
:1028E000002DF2D03120FFF7CEFF08B1012400E027
:1028F0000024204638BD01460020A14A106820F07F
:10290000F80040EAC10010607047A04908607047B5
:10291000024600209A4B586820F47C1042EA0103DA
:102920001843974B586070479849086670470146AE
:102930000020934A506820F003000843506070471D
:102940008F48406800F00C007047014600208C4A18
:10295000506820F0F00008435060704701460020A6
:10296000874A506820F4E060084350607047014691
:102970000020834A506820F4605040EAC100506053
:10298000704729B17E4A527A02437D4B5A7204E065
:102990007B4A527A82437A4B5A7270477B49D831CC
:1029A0000860704701460020754A506820F4404096
:1029B0000843506070470021714A20321170704AFC
:1029C00082F82010012802D004280AD104E0012155
:1029D0006B4A2032117005E00521694A20321170DE
:1029E00000E000BF00BF7047694908607047644954
:1029F000096A0143624A11627047654944390860B7
:102A0000704730B500210022002400235C4D6D6822
:102A100005F00C0121B1042905D0082923D105E0D6
:102A20005C4D056022E05B4D05601FE0544D6D6814
:102A300005F47012524D6D6805F48034022505EBE3
:102A400092421CB9544D554305600BE04C4D6D68E6
:102A500005F400351DB1504D5543056002E04D4D64
:102A60005543056002E04B4D056000BF00BF444D7B
:102A70006D6805F0F0010909484D6B5C0568DD40A3
:102A800045603F4D6D6805F4E061090A434D6B5C9C
:102A90004568DD4085603A4D6D6805F46051C90AAE
:102AA0003E4D6B5C4568DD40C560354D6D6805F495
:102AB0004041890B3A4D6B5CC568B5FBF3F5056188
:102AC00030BD29B12E4A526902432D4B5A6104E0B0
:102AD0002B4A526982432A4B5A61704729B1284ACE
:102AE00092690243264B9A6104E0254A9269824327
:102AF000234B9A61704729B1214AD2690243204B86
:102B0000DA6104E01E4AD26982431D4BDA617047E4
:102B100029B11B4AD2680243194BDA6004E0184A13
:102B2000D2688243164BDA60704729B1144A1269A1
:102B30000243134B1A6104E0114A12698243104B9D
:102B40001A61704712494039086070470F49C864DC
:102B500070470B49C87170470948406A40F080705F
:102B600007494862704701460020054A92680A40BA
:102B70000AB1012000E000207047014988727047C7
:102B8000001002400000FFF8FFFFF6FE0000424286
:102B90008004424200127A0000093D002A00002011
:102BA0003A00002010B50446FE48844209D10121B4
:102BB0004806FFF7BAFF00214FF00070FFF7B5FF9E
:102BC00008E001218806FFF7B0FF00214FF0806088
:102BD000FFF7ABFF10BD30B502460020002314689C
:102BE00024F002041460146844F00104146000E04E
:102BF0005B1C546804F001041CB94FF6FF74A34237
:102C0000F6D1546804F001040CB900206CE08C7912
:102C1000012C04D1146844F08004146003E01468AB
:102C200024F080041460CC79012C04D1146844F0A1
:102C30004004146003E0146824F0400414600C7A2B
:102C4000012C04D1146844F02004146003E01468DB
:102C500024F0200414604C7A012C04D1146844F050
:102C60001004146003E0146824F0100414608C7ADB
:102C7000012C04D1146844F00804146003E01468C3
:102C800024F008041460CC7A012C04D1146844F0B8
:102C90000404146003E0146824F0040414608C78C5
:102CA000A407CD7844EA05640D7944EA05444D79DA
:102CB00044EA05540D886D1E2C43D461146824F039
:102CC00001041460002300E05B1C546804F001045C
:102CD0001CB14FF6FF74A342F6D1546804F001040E
:102CE0000CB1002000E0012030BD10B50021837A36
:102CF000012202FA03F1AC4A126842F00102AA4B27
:102D00001A60A94A1C3212688A43A74B1C331A6006
:102D1000027BCAB9A44A0C3212688A43A24B0C3314
:102D20001A604288C38842EA03439F4A4032847A49
:102D300042F834300288838842EA03439A4A403298
:102D4000847A02EBC4025360027B012A19D1964AAD
:102D50000C3212680A43944B0C331A604288038881
:102D600042EA0343904A4032847A42F83430C288BF
:102D7000838842EA03438C4A4032847A02EBC402DD
:102D80005360C27A3AB9884A121D12688A43864B48
:102D90001B1D1A6006E0844A121D12680A43824B0A
:102DA0001B1D1A60028932B97F4A143212688A43A5
:102DB0007D4B14331A600289012A06D17A4A1432F3
:102DC00012680A43784B14331A60427B012A06D1F9
:102DD000754A1C3212680A43734B1C331A60724ADC
:102DE000126822F00102704B1A6010BD002181713F
:102DF000C171017241728172C1728170C17003210F
:102E00000171022141710121018070476649096801
:102E100041F00101644A11601146096843F60E72DF
:102E20009143614A11601146096841EA002111602D
:102E30001146096821F001011160704721B1026853
:102E400042F48032026003E0026822F480320260C1
:102E50007047E1B1026842F0800202604FF4C27232
:102E6000125842F480734FF4C27213504FF4CA7276
:102E7000125842F480734FF4CA7213504FF4D27256
:102E8000125842F480734FF4D27213501BE0026860
:102E900022F0800202604FF4C272125822F4807352
:102EA0004FF4C27213504FF4CA72125822F4807356
:102EB0004FF4CA7213504FF4D272125822F4807336
:102EC0004FF4D2721350704710B502460020936839
:102ED00003F08063B3F1806F00D110E0936803F0DA
:102EE0000063B3F1006F01D1012008E0936803F0A3
:102EF0008053B3F1805F01D1022000E00420042858
:102F000079D002F5C07303EB00131B6803F00104D2
:102F100002F5C07303EB00131C600B7A7BB94B7A8C
:102F20000C8843EA445302F5C07404EB001424688F
:102F3000234302F5C07404EB0014236010E00B7A05
:102F40004C6843EAC4034C7A234302F5C07404EB93
:102F500000142468234302F5C07404EB00142360BA
:102F60008B7A03F00F038B7202F5C07303EB00132F
:102F70005B6823F00F0402F5C07303EB00135C6081
:102F800002F5C07303EB00135B688C7A234302F5F0
:102F9000C07404EB001463608B7B1C064B7B44EA1B
:102FA000034403E000640040006600400B7B44EAF9
:102FB0000323CC7A234302F5C07404EB0014A3600E
:102FC0008B7C1C064B7C44EA03440B7C44EA0323C1
:102FD000CC7B234302F5C07404EB0014E36002F5DC
:102FE000C07303EB00131B6843F0010402F5C073C8
:102FF00003EB00131C6010BD10B50246002321B185
:10300000012907D002290FD109E09068F94C00EAA4
:1030100004030BE09068F84C00EA040306E09068B3
:10302000F64C00EA040301E0002300BF00BFF44CAB
:10303000181BA34216D007DC83B16FF080601844E0
:1030400070B1022818D111E0B0F5007F10D0ED4C1E
:10305000204448B1B0F5003F0ED10BE002230DE053
:1030600000230BE0002309E0002307E0012305E033
:10307000012303E0012301E0002300BF00BFD8B219
:1030800010BD21B1012907D002290FD109E08268C2
:1030900042F0800282600AE0826842F4004282606C
:1030A00005E0826842F40002826000E000BF00BFD9
:1030B000704710B500F5D87303EB01131B6803F0DC
:1030C00004031372137A53B900F5D87303EB011399
:1030D0001B6840F2FF7404EA5353136009E000F5E3
:1030E000D87303EB01131B686FF0604404EAD30349
:1030F000536000F5D87303EB01131B6803F0020360
:10310000537200F5D87303EB01135B6803F00F03F0
:10311000937200F5D87303EB01135B681B0AD37439
:1031200000F5D87303EB01139B68D37200F5D873D5
:1031300003EB01139B681C0A147300F5D87303EBAF
:1031400001139B681C0C547300F5D87303EB011337
:103150009B681B0E937300F5D87303EB0113DB68B8
:10316000D37300F5D87303EB0113DB681C0A1474E6
:1031700000F5D87303EB0113DB681C0C547400F5E5
:10318000D87303EB0113DB681B0E937421B9C3687A
:1031900043F02003C36003E0036943F020030361AD
:1031A00010BD21B9C26842F02002C26003E002698A
:1031B00042F02002026170470246002019B9D3682C
:1031C00003F0030006E0012903D1136903F00300B3
:1031D00000E00020704710B502460B4600204FF675
:1031E000FF71BBB9146824F0020444F001041460B8
:1031F00000E0491E546804F00304012C01D00029AA
:10320000F7D1546804F00304012C01D0002032E00F
:10321000012030E0012B13D1146824F00304146062
:1032200000E0491E546804F003040CB10029F8D1F1
:10323000546804F003040CB100201CE001201AE0E3
:10324000022B17D1146824F0010444F00204146026
:1032500000E0491E546804F00304022C01D0002948
:10326000F7D1546804F00304022C01D0002002E0DE
:10327000012000E0002010BD014600200A6822F075
:10328000010242F002020A604A6802F00302022AC6
:1032900000D10120704701464FF6FF7200200B68F5
:1032A00023F002030B6000E0521E4B6803F00203A0
:1032B000022B01D1002AF7D14B6803F00203022B45
:1032C00000D001207047014600208A6902F070009A
:1032D0007047014600208A69100E704701460020A1
:1032E0008A69C2F3074070471AB143690B434361CF
:1032F00002E043698B434361704710B502460020EA
:1033000001F4700343B19369C1F3130423400BB17B
:1033100001202DE000202BE001F0807343B15368C1
:10332000C1F3130423400BB1012021E000201FE072
:1033300001F0006343B19368C1F3130423400BB160
:10334000012015E0002013E001F0007343B1D368C1
:10335000C1F3130423400BB1012009E0002007E072
:103360001369C1F3130423400BB1012000E00020D6
:1033700010BD0022244B994202D10023836111E049
:10338000C1F3130201F000730BB1C2600AE001F057
:1033900080630BB1026105E001F000630BB1826054
:1033A00000E0426070470246002002EA01030BB1D0
:1033B000012000E00020704770B504460D4600264D
:1033C00060692840002872D0B5F5807F69D01DDC87
:1033D000082D42D006DC012D2DD0022D31D0042D38
:1033E0007FD134E0102D3ED0202D42D0402D78D119
:1033F00045E0000003000004000300080000031083
:10340000000100080001FFF77000F030B5F5004F33
:1034100061D009DCB5F5007F4AD0B5F5806F4DD09D
:10342000B5F5006F5DD150E0B5F5803F2DD0B5F515
:10343000003F56D12FE0A0685549FFF7B4FF06467C
:1034400051E0E0680321FFF7AEFF06464BE0E0687D
:103450000821FFF7A8FF064645E0E0681021FFF7C6
:10346000A2FF06463FE020690321FFF79CFF0646C6
:1034700039E020690821FFF796FF064633E020690E
:103480001021FFF790FF06462DE060680821FFF746
:103490008AFF064627E060681021FFF784FF064692
:1034A00021E0A0690121FFF77EFF06461BE01BE03B
:1034B000A0690221FFF777FF064614E0A069042106
:1034C000FFF771FF06460EE00BE0A0697021FFF7E1
:1034D0006AFF064607E060680421FFF764FF0646BE
:1034E00001E0002600BF00E00026304670BDB1F5C7
:1034F000007F3AD00FDC202928D006DC01291CD01F
:1035000004291DD0082940D11DE0402921D0B1F562
:10351000807F3AD126E0B1F5004F31D006DCB1F51D
:10352000806F25D0B1F5006F2FD124E0B1F5803F39
:1035300012D0B1F5003F28D111E0154A826025E094
:103540000822C26022E01022C2601FE0082202614D
:103550001CE01022026119E00822426016E01022ED
:10356000426013E00422426010E0042242600DE059
:10357000042242600AE0002282610422426005E0E7
:10358000002282610422426000E000BF00BF704759
:103590000101010010B50446FB48844209D1012114
:1035A0008803FFF7B5FA00214FF48040FFF7B0FA27
:1035B00032E0F648844209D101214804FFF7B5FA08
:1035C00000214FF40030FFF7B0FA25E0F0488442C4
:1035D00009D101218804FFF7A8FA00214FF48020C7
:1035E000FFF7A3FA18E0EB48844209D10121C8048F
:1035F000FFF79BFA00214FF40020FFF796FA0BE04B
:10360000E548844208D101210805FFF78EFA002120
:103610004FF48010FFF789FA10BD2DE9F04786B00E
:1036200005460E460024A24600BFA1460027B089E9
:1036300000B100BF2F462C8A4CF6FF700440F08882
:1036400004432C82AC894EF6F3100440B0883189D3
:103650000843718908430443AC81AC8A4FF6FF40AC
:103660000440B0890443AC8201A8FFF7CAF9C648F8
:10367000874202D1DDF810A001E0DDF80CA0A88996
:1036800000F4004040B10AEBCA0000EB0A103168B8
:103690004900B0FBF1F807E00AEBCA0000EB0A10A2
:1036A00031688900B0FBF1F86420B8FBF0F0040148
:1036B0002009642101FB1089A88900F4004040B171
:1036C000322000EBC900B0FBF1F000F0070004432A
:1036D00008E0322000EB09106421B0FBF1F000F0AB
:1036E0000F0004432C8106B0BDE8F0874FF416515B
:1036F000016000218180C18001810C214181002174
:103700008181704710B502460020108A4FF2FF03F6
:1037100018400B884C8823438C882343CC88234350
:103720001843108210BD0021018041808180C1803A
:10373000704721B1828942F40052828104E082897B
:103740004DF6FF731A4082817047F0B5034600249E
:1037500000260025002040F66A17B94200D100BFBC
:103760001846C1F3421401F01F06012707FA06F5B7
:10377000012C01D10C3004E0022C01D1103000E00A
:1037800014301AB107682F43076002E00768AF439F
:103790000760F0BD1AB1838A0B43838202E0838AFB
:1037A0008B4383827047028A4FF6F0731A4002827D
:1037B000028A0A430282704782894FF2FF731A40DD
:1037C000828182890A438281704721B1828942F0D5
:1037D0000202828104E082894FF6FD731A408281E1
:1037E0007047028A4FF6DF731A400282028A0A4348
:1037F0000282704721B1028A42F48042028204E0D0
:10380000028A4BF6FF731A4002827047C1F3080226
:103810008280704701468888C0F30800704781891C
:1038200041F0010181817047028BD2B20283028B89
:1038300042EA012202837047028B02F47F42028334
:10384000028B0A430283704721B1828A42F0200230
:10385000828204E0828A4FF6DF731A4082827047C8
:1038600021B1828A42F01002828204E0828A4FF6FD
:10387000EF731A408282704721B1828A42F00802B7
:10388000828204E0828A4FF6F7731A408282704780
:1038900021B1828942F40042828103E08289C2F32D
:1038A0000E028281704721B1828A42F400628282D4
:1038B00004E0828A4FF2FF731A4082827047828A44
:1038C0004FF6FB731A408282828A0A4382827047D3
:1038D00021B1828A42F00202828204E0828A4FF69B
:1038E000FD731A408282704702460020B1F5007FC6
:1038F00000D100BF13880B400BB1012000E0002075
:10390000704701F40072B2F5007F00D100BFCA43D6
:103910000280704770B50246002400230025002075
:1039200040F66A16B14200D100BFC1F3421501F062
:103930001F03012606FA03F3012D02D196893340B5
:1039400006E0022D02D1168A334001E0968A334008
:103950000C12012606FA04F41688344013B10CB197
:10396000012000E0002070BD10B50022002340F6C9
:103970006A14A14200D100BF0A1201249440A3B2EC
:10398000DC43048010BD00000038014000440040CA
:1039900000480040004C00400050004010B5044674
:1039A000FE48844208D10121C014FFF7B1F800217C
:1039B000E014FFF7ADF8C4E0B4F1804F08D1012165
:1039C0000846FFF7B2F800210120FFF7AEF8B8E093
:1039D000F348844208D101210220FFF7A6F8002114
:1039E0000220FFF7A2F8ACE0EE48844208D10121A2
:1039F0000420FFF79AF800210420FFF796F8A0E0D2
:103A0000E948844208D101210820FFF78EF80021FF
:103A10000820FFF78AF894E0E448844208D10121A5
:103A20001020FFF782F800211020FFF77EF888E0D1
:103A3000DF48844208D101212020FFF776F80021D9
:103A40002020FFF772F87CE0DA48844208D1012197
:103A50004014FFF75DF800216014FFF759F870E09B
:103A6000D548844209D10121C804FFF751F800214B
:103A70004FF40020FFF74CF863E0D048844209D1AE
:103A800001210805FFF744F800214FF48010FFF7EB
:103A90003FF856E0CA48844209D101214805FFF7A2
:103AA00037F800214FF40010FFF732F849E0C5481D
:103AB000844208D101214020FFF737F8002140203F
:103AC000FFF733F83DE0C048844208D1012180204F
:103AD000FFF72BF800218020FFF727F831E0BB48E3
:103AE000844208D101218015FFF71FF80021A0159D
:103AF000FFF71BF825E0B648844209D101210804EC
:103B0000FFF706F800214FF48030FFF701F818E0C6
:103B1000B048844209D101214804FEF7F9FF002191
:103B20004FF40030FEF7F4FF0BE0AB48844208D1BD
:103B300001218804FEF7ECFF00214FF48020FEF7FE
:103B4000E7FF10BD00220288944B98420ED0994B9B
:103B500098420BD0B0F1804F08D0914B984205D0DD
:103B6000904B984202D0904B984204D14FF68F73FD
:103B70001A404B881A438D4B984207D08C4B984281
:103B800004D04FF6FF431A40CB881A4302808B883B
:103B900083850B880385814B98420BD0854B9842D7
:103BA00008D08B4B984205D08A4B984202D08A4B62
:103BB000984201D10B7A038601238382704770B546
:103BC000002400220023058C4FF6FE763540058444
:103BD000028C8388048B4FF68F752C40B51E2C40C9
:103BE0000D882C43751E2A400D892A434D882A438F
:103BF0006A4DA8420BD06F4DA84208D0744DA84220
:103C000005D0744DA84202D0734DA84213D14FF68F
:103C1000F7752A404D892A434FF6FB752A408D8857
:103C20002A434FF6FF652B404FF6FF552B408D89F9
:103C30002B43CD892B4383800483CD8885860284E2
:103C400070BD70B5002400220023058C4FF6EF767E
:103C500035400584028C8388048B48F6FF752C4020
:103C60004FF6FF452C400D884FF6FF7606EA0525F6
:103C70002C434FF6DF752A400D8906EA05152A43C5
:103C80004D8806EA05152A43444DA84202D0494D05
:103C9000A8421DD14FF67F752A404D894FF6FF7619
:103CA00006EA05152A434FF6BF752A408D8806EAB5
:103CB00005152A434FF6FF352B404FF2FF752B4079
:103CC0008D8906EA85052B43CD8906EA85052B43B8
:103CD00083800483CD880587028470BD70B500247D
:103CE00000220023058C4FF6FF6635400584028CC8
:103CF0008388848B4FF68F752C404FF6FC752C40D3
:103D00000D882C434FF6FF552A400D894FF6FF765C
:103D100006EA05252A434D8806EA05252A431F4D54
:103D2000A84202D0234DA8421DD14FF2FF752A4070
:103D30004D894FF6FF7606EA05252A434FF6FF35F3
:103D40002A408D8806EA05252A434EF6FF752B404A
:103D50004DF6FF752B408D8906EA05152B43CD895D
:103D600006EA05152B4383808483CD8885870284EA
:103D700070BD70B5002200230024058C4EF6FF763E
:103D800035400584038C8488828B48F6FF752A4071
:103D90004FF6FF452A400D8820E00000002C01402E
:103DA0000004004000080040000C004000100040EB
:103DB0000014004000340140004C0140005001401C
:103DC0000054014000180040001C0040002000404A
:103DD0000040014000440140004801404FF6FF769A
:103DE00006EA05252A434DF6FF752B400D8906EAA4
:103DF00005352B434D8806EA05352B43FA4DA8427D
:103E000002D0FA4DA84208D14BF6FF752C408D899F
:103E10004FF6FF7606EA85152C4384808283CD8891
:103E2000A0F84050038470BD828B4FF2FF331A40DC
:103E30008283828B4FF6FF7303EA01231A43828346
:103E40007047F0B50C461546002200210026078C6D
:103E50004EF6FF7C07EA0C070784828B018C4FF635
:103E6000FF7707EA043640F6FF473A404FF6FF7700
:103E700007EA05273A434FF6FF7707EA03373A4345
:103E8000D94FB8420ED0D94FB8420BD0B0F1804FC5
:103E900008D0D74FB84205D0D64FB84202D0D64F3F
:103EA000B84206D14DF6FF77394046F48057394382
:103EB00005E047F6FF57394044F480573943828381
:103EC0000184F0BD828B4FF6F3731A408283828B9C
:103ED0000A4382837047F0B50C4615460022002144
:103EE0000026078C4FF6FF6C07EA0C070784828BCD
:103EF000018C4FF6FF7707EA04264FF60C773A401D
:103F00004FF6FF7707EA03172F433A43B64FB842FD
:103F10000ED0B64FB8420BD0B0F1804F08D0B44F9E
:103F2000B84205D0B34FB84202D0B34FB84206D121
:103F30004FF6FF57394046F48077394305E04FF29A
:103F4000FF57394044F48077394382830184F0BDC0
:103F5000028B4FF2FF331A400283028B4FF6FF733E
:103F600003EA01231A4302837047F0B50C46154655
:103F7000002200210026078C4FF6EF7C07EA0C0791
:103F80000784028B018C4FF6FF7707EA041640F690
:103F9000FF473A404FF6FF7707EA03373A434FF6B9
:103FA000FF7707EA05273A438F4FB8420ED08F4F6D
:103FB000B8420BD0B0F1804F08D08D4FB84205D039
:103FC0008C4FB84202D08C4FB84206D14FF6DF7703
:103FD000394046F01007394305E04FF65F77394026
:103FE00044F01007394302830184F0BD028B4FF681
:103FF000F3731A400283028B0A4302837047F0B5C1
:104000000C46154600220021068C4FF6FE773E40F6
:104010000684028B018C4FF60C7632407E1C06EA39
:1040200003162E433243704EB0420ED06F4EB04254
:104030000BD0B0F1804F08D06D4EB04205D06D4E20
:10404000B04202D06C4EB04206D14FF6FD76314000
:1040500044F00106314305E04FF6F576314044F077
:104060000106314302830184F0BD70B505460C465C
:104070005D4885420ED05D4885420BD0B5F1804F3A
:1040800008D05B48854205D05A48854202D05A483C
:10409000854200D100E000BF208850B92389A28862
:1040A00061882846FFF7ABFFE1882846FFF79EFFAF
:1040B00025E0208804280AD12389A288618828461F
:1040C000FFF753FFE1882846FFF742FF17E02088FB
:1040D00008280AD12389A28861882846FFF7FBFEB9
:1040E000E1882846FFF7EEFE09E02389A28861886F
:1040F0002846FFF7A6FEE1882846FFF795FE70BD2B
:104100002DE9F04105460C4600260127608808B9D4
:10411000022600E00026A088012801D1022700E045
:1041200001272088A0B92389A28861882846FFF743
:1041300066FFE1882846FFF759FF23893A46314652
:104140002846FFF712FFE1882846FFF701FF13E03A
:104150002389A28861882846FFF707FFE18828465F
:10416000FFF7F6FE23893A4631462846FFF747FF18
:10417000E1882846FFF73AFFBDE8F0810A884B88BE
:104180001A438B881A43CB881A430B891A434B89ED
:104190001A438B891A43A0F8442070474FF6FF71E9
:1041A000818000210180C18041800172704700211F
:1041B000018041808180C180018141818181C181F3
:1041C0007047002101804180012181800021C18050
:1041D000018170470021018041808180C18001817F
:1041E0004181818170470000002C01400034014072
:1041F0000004004000080040000C004021B102888B
:1042000042F00102028004E002884FF6FE731A4079
:104210000280704731B1B0F8442042F40042A0F867
:10422000442005E0B0F84420C2F30E02A0F8442078
:1042300070471AB183890B43838102E083898B43E2
:10424000838170478182704741EA0203A0F84830B9
:1042500070471AB183890B43838102E083898B43C2
:104260008381704701894FF6F872114001817047D0
:104270000A46002101894FF68F73194011430181CD
:10428000704730B504460D4629462046FFF7F0FF3B
:10429000208940F00700208130BD2DE9F04104461F
:1042A0000D4616461F46602D06D13B46012231467B
:1042B0002046FFF75AFE05E03B46012231462046E4
:1042C000FFF79DFE29462046FFF7D2FF208940F0E8
:1042D00007002081BDE8F08130B50C46002101893E
:1042E000C9B24FF6FF7505EA032515432543294357
:1042F000018130BD2DE9F04105460E46174698462E
:10430000002443463A4631462846FFF7E5FF2C890C
:104310004FF6F870044044F007044FF68F700440E5
:1043200044F070042C81BDE8F081F0B504460D46E0
:1043300016461F463B46324629462046FFF7CCFF2D
:10434000208940F480402081F0BD01858282704741
:104350000A46002101884FF68F73194011430180EE
:104360007047F0B50C4615461E460021002200237A
:104370000189028B038C4FF6F877394021434FF6C1
:10438000FC473A4040F201173A434FF6DD773B4095
:104390004FF6FF7707EA06172F433B43018102835D
:1043A0000384F0BD0A460021018B4FF68F7319403C
:1043B0001143018370470A460021018B48F6FF73C1
:1043C00019404FF6FF7303EA022319430183704734
:1043D0000A460021818B4FF68F7319401143818368
:1043E00070470A460021818B48F6FF7319404FF64B
:1043F000FF7303EA022319438183704721B10288C6
:1044000042F08002028004E002884FF67F731A4077
:104410000280704721B1828842F00402828004E069
:1044200082884FF6FB731A408280704721B18288E0
:1044300042F00802828004E082884FF6F7731A4047
:104440008280704721B1828842F00102828004E0BC
:1044500082884FF6FE731A40828070470A46002118
:10446000018B4FF6F77319401143018370470A46D9
:104470000021018B4FF2FF7319404FF6FF7303EADF
:1044800002231943018370470A460021818B4FF6AE
:10449000F77319401143818370470A460021818BCD
:1044A0004FF2FF7319404FF6FF7303EA02231943DB
:1044B000818370470A460021018B4FF6FB73194038
:1044C0001143018370470A460021018B4FF6FF33E9
:1044D00019404FF6FF7303EA022319430183704723
:1044E0000A460021818B4FF6FB73194011438183EB
:1044F00070470A460021818B4FF6FF3319404FF673
:10450000FF7303EA02231943818370470A4600219F
:10451000018B4FF67F7319401143018370470A46A0
:104520000021018BC1F30E014FF6FF7303EA022352
:104530001943018370470A460021818B4FF67F7330
:1045400019401143818370470A460021818BC1F3D2
:104550000E014FF6FF7303EA02231943818370476C
:104560000A460021018C4FF6FD7319401143018466
:1045700070470A460021018C4FF6F773194011432A
:10458000018470470A460021018C4FF6DF73194001
:104590004FF6FF7303EA02131943018470470A467A
:1045A0000021018C4FF67F7319404FF6FF7303EA29
:1045B00002131943018470470A460021018C4FF60B
:1045C000FF5319404FF6FF7303EA02231943018496
:1045D00070470A460021018C4FF2FF7319404FF6D5
:1045E000FF7303EA02231943018470470A4600213E
:1045F000018C4DF6FF7319404FF6FF7303EA023347
:1046000019430184704730B5002301248C40A3B2C4
:10461000048C9C430484048C02FA01F5ADB22C4353
:10462000048430BD30B5002304248C40A3B2048C34
:104630009C430484048C02FA01F5ADB22C4304843B
:1046400030BD70B5034600200024184618300125FF
:104650008D40ACB21D8CA5431D8409B1082909D138
:1046600000EB6100056825F07005056005681543DD
:1046700005600EE00D1FC5F34E052844056825F4BE
:10468000E045056005684FF6FF7606EA02263543E9
:10469000056070BD21B1028842F00202028004E090
:1046A00002884FF6FD731A400280704721B10288DC
:1046B00042F00402028004E002884FF6FB731A40C5
:1046C0000280704721B1828842F08002828004E03B
:1046D00082884FF67F731A408280704702884FF6B7
:1046E000F7731A40028002880A430280704782886A
:1046F0004FF68F731A40828082880A438280704707
:1047000002894FF6F8731A40028102890A43028136
:10471000704702894FF67F731A40028102890A436B
:104720000281704781847047818570478186704718
:104730000187704781877047A0F840107047028852
:104740004FF6FF431A40028002880A4302807047F6
:104750000146888E70470146088F70470146888F52
:1047600070470146B1F8400070470146888C704799
:104770000146088D704702460020138A0B400BB19A
:10478000012000E000207047CA430282704730B524
:104790000246002000230024158A05EA01039589BA
:1047A00005EA010413B10CB1012000E0002030BD86
:1047B000CA4302827047704770477047704770471E
:1047C00010B500F009F8006810BD10B5044600F0FF
:1047D00003F8046010BD00000048704798020020F4
:1047E00000487047980200207546FFF7F9FFAE4673
:1047F00005006946534620F00700854618B020B5ED
:10480000FDF7D0FDBDE820404FF000064FF0000757
:104810004FF000084FF0000B21F00701AC46ACE868
:10482000C009ACE8C009ACE8C009ACE8C0098D46D5
:1048300070470446AFF300802046FBF7C0FC2DE92B
:10484000F04114461D4606460F4600F06CF900F094
:104850007040B0F1005F0FD0201C18BF012028432A
:1048600020F00040C0F17F6000F1E040C00F02BFC7
:1048700020462946BDE8F08130463946BDE8F08142
:104880002DE9F04114461D4606460F4600F04BF94F
:1048900000F07040B0F1004F0FD0201C18BF012075
:1048A000284320F00040C0F17F6000F1E040C00FDD
:1048B00002BF20462946BDE8F08130463946BDE8B2
:1048C000F0812DE9F04106460F4600F07BFC040024
:1048D0000D4618BF0120284320F00040C0F17F6042
:1048E00000F1E040C00F0ED0301C18BF012038434B
:1048F00020F00040C0F17F6000F1E040C00F04BF35
:104900000120FFF762FF20462946BDE8F081000044
:1049100021F00042A2F16052B2F5801F01F0004385
:1049200028BFD2F17F6C0BD95FEA001C43EAC202B8
:1049300042EB507018BF704728BF20F0010070474D
:10494000B2F5801FBCBF184670474FEA410C1CF5FA
:10495000001F02D2084601F090B870B500F0DEFBEF
:1049600000000089FFF7F6BF4FF00040A0F580007F
:104970007047000010B591EA030F48BF83F0004371
:1049800000F10E85841A71EB030C05D2121943EB6A
:104990000C03001B61EB0C01DFF824E14FEA11541A
:1049A000A4EB135C1EEA430F18BF9EEA445F73D06A
:1049B00023EA0E03DCF1200E21EA045143F48013B4
:1049C00032D322FA0CFE10EB0E0023FA0CFE41EB60
:1049D0000E01CCF1200E03FA0EFE10EB0E0051F189
:1049E0000001B1F5801FCCF1200E32D201EB045151
:1049F00012FA0EF2BDE8104058BF7047401C38BF95
:104A00005FEA420218BF7047002814BF20F001007F
:104A100041F100014FEA410313F5001F38BF704711
:104A2000A1F1C04100F0C8BB012A43EB0302ACF185
:104A3000200CDCF11F0E32BF4FF0000E23FA0CF3F6
:104A400010EB030041EB0451B4EB115FD0D0A1EBAC
:104A5000045101F5801149085FEA300001EB04516F
:104A60000ED350F1000038BF12FA0EFE08D1BDE897
:104A70001040C9E7401C38BF5FEA4202CAD1C3E711
:104A8000BDE810404FEA410313F5001F38BF7047DF
:104A9000A1F1C04100F090BB9EEA445F08D011EA4A
:104AA0005E0FBDE8104004BF01F0004100207047D8
:104AB000BDE8104070B500F031FB00BF64FBBE3EA6
:104AC0000000E0FF51EA030C17D41CF5801F58BF0B
:104AD000BCF5801F00F10680994218BF704708BFDF
:104AE0009042704707D711F5801F58BF13F5801FFC
:104AF00026D499427047894270471CF5801F08D51B
:104B0000BCF5801FF7D58B4218BF704708BF8242A3
:104B100070474FF4001C1CEB410F38BF1CEB430FD8
:104B20000ED28B42704770B5FFF7CCFFEFF30080D9
:104B300020F0104038BF40F0004080F3008870BD86
:104B4000BDE8704070B500F0E9FA00BF0000000950
:104B500000F053B84FF0404010F1004FEFF30080E9
:104B6000704751EA030C17D41CF5801F58BFBCF5E1
:104B7000801F00F10680994218BF704708BF90421D
:104B8000704707D711F5801F58BF13F5801F26D433
:104B900099427047894270471CF5801F08D5BCF5C3
:104BA000801FF7D58B4218BF704708BF82427047FD
:104BB0004FF4001C1CEB410F38BF1CEB430F0ED20F
:104BC0008B42704770B5FFF7CCFFEFF3008020F009
:104BD000104038BF40F0004080F3008870BD00F006
:104BE0009DFA00BF0000000900F007B84FF04040F8
:104BF00010F1004FEFF300807047491058BFC1F12A
:104C000040415B1058BFC3F140438B42EFF300803B
:104C1000704700002DE9C04130B4DFF8A0C23CEA83
:104C2000111418BF3CEA131400F0EC8081EA03056C
:104C30001CEA111444EAD57418BF1CEA131500F0DD
:104C4000C780A4EB05044FF0004545EAC12145EAC1
:104C5000C32341EA505143EA525304F17F7499420D
:104C600004F500344FEAC0204FEAC22208BF904248
:104C700000F09C804FEA13650FF24016765D4FEA14
:104C8000134506FB05F7C7F1807706FB07F74FEAE8
:104C9000D737A7FB03687642C8F58038A7FB06CE56
:104CA00038BFA8F1010807FB08E64FF0000EA6FB8D
:104CB000028CE6FB03CEDCF1000CCEF1004E38BFD7
:104CC000AEF1010EA6FB0C584FF000074FF00005A7
:104CD000E6FB0E87A1FB08C6A0FB07CE16EB0E066F
:104CE00045F10005E1FB076515F1E04E7EBFA4F537
:104CF00080345FEA46066D4116F1800745F10005F4
:104D00004FEA17274FEA066647EA0567A6F1DE462F
:104D1000B6F1805F4FEA15251FD9384624F0010C03
:104D200005EBC471BCF1FE6F01EB0C1102D8F0BCB5
:104D3000BDE8008124425CBF01F5801E9EEAC47F6D
:104D400002D4F0BCBDE80081244238D4F0BCA1F10B
:104D5000C041BDE8004100F02FBA4FEAD22242EA3A
:104D600043524FEAD323A7FB02864FEAD02040EA02
:104D7000415007FB03661EEA0E0F4FEAD12105FBE7
:104D8000026658BFA6EB0056B6EB00564FEA520E2D
:104D90004EEAC37E18EB0E0E56EB530EBDD518EB44
:104DA00002085E417F1C55F10005B6E74FF48015FF
:104DB0004FF000074FF000064FF00008ADE7F0BCE1
:104DC0004FF0000001F1C04101F00041BDE8008159
:104DD00011EA0C1F0CEA131500D00CE013EA0C1FAB
:104DE00000F025804FF00000F0BC81EA030101F0E3
:104DF0000041BDE80081F0BCBDE8004181EA03014B
:104E000000F0DAB9F0BCBDE8004170B500F086F9F9
:104E1000097EFC3E00F007B881EA03014FF0000074
:104E200001F00041704781EA030100F0C5B9F0BC10
:104E3000BDE800414FF0000021497047FFFDFBF93C
:104E4000F7F5F4F2F0EEEDEBE9E8E6E4E3E1E0DEBD
:104E5000DDDBDAD8D7D5D4D3D1D0CFCDCCCBCAC82F
:104E6000C7C6C5C4C2C1C0BFBEBDBCBBBAB9B8B756
:104E7000B6B5B4B3B2B1B0AFAEADACABAAA9A8A849
:104E8000A7A6A5A4A3A3A2A1A09F9F9E9D9C9C9B17
:104E90009A999998979796959594939392919190C2
:104EA0008F8F8E8E8D8C8C8B8B8A89898888878753
:104EB0008685858484838382828181800000FF07C8
:104EC0000000F87F4FEA41034FEA5353A3F5806394
:104ED000D3F11E03C8BFD3F1210C0CDD4FF000420B
:104EE00042EAC12242EA505232FA03FC8CEAE17CE7
:104EF000ACEBE1707047102BC4BF0020704703F586
:104F0000787CBCF1FF3F04D06FF0004282EA2100C0
:104F1000704770B500F002F9499224800020704774
:104F2000F2E710F0004248BF4042B0FA80F310FAB6
:104F300003F10AD0C3F11D0303F580634FEA41502A
:104F400002EB035202EBD12170474FF00000704793
:104F500051EA030C17D41CF5801F58BFBCF5801F05
:104F600000F10680994218BF704708BF9042704711
:104F700007D711F5801F58BF13F5801F19D4994228
:104F80007047894270471CF5801F08D5BCF5801F0B
:104F9000F7D58B4218BF704708BF824270474FF465
:104FA000001C1CEB410F38BF1CEB430F01D28B429E
:104FB000704770B500F0B2F8922449004FF00051EC
:104FC0004FF08053FFF719BEDFF848C170B51CEAF7
:104FD000111E1EBF1CEA13159EEA0C0F95EA0C0F5A
:104FE00000F06F8081EA030423EA4C134EEAD47E7A
:104FF00021EA4C1141F4801143F48013AE44A1FB2B
:10500000024CA0FB0365AEF17F7E361955EB0C0513
:10501000A1FB034C4CF10003A0FB021C16EB0C0699
:10502000654153F10003094218BF46F0010613F42D
:10503000007F0BD14FEA03314FEA0530340341EAD8
:10504000155140EA16506FF003020AE04FEAC321FF
:105050004FEAC520F40241EA555140EA56506FF03C
:10506000020202EB2E4201EB025585EACE710AD014
:105070005FEA440C18BF24F0004450F1000041F1F5
:10508000000120EAD47040F2FE7C624500D270BD7F
:10509000A84214BF4FF080444FF04044002E08BF98
:1050A0000024BEF1806FA8BFA1F1C041BDE87040EF
:1050B00080F282804FF0000001F1C04101F0004118
:1050C00070479EEA0C0F0CEA131518BF95EA0C0FF7
:1050D00006D04FF0000081EA030E0EF0004170BDD3
:1050E00000F01CF88900013E00F007B800F009B894
:1050F0004FEA430C5FEA5C5C08D081EA030100F0F0
:105100005BB84FEA410C5FEA5C5CF6D14FF00000FF
:10511000014970470000FF070000F87F0EF1020E02
:105120002EF0030E5EF8046B364205D4012A43EBE1
:10513000030515F5001F12D8012841EB010C1CF5E1
:10514000001F0CD80ED14FEAD17C15F5001F0CEBD7
:105150004C0C0CF1020C08BF4CEBD37C04E04FF07C
:10516000080C01E04FEAD37C0CEB4C0526FA05F65F
:1051700006F00706B6F1040C06D20EEB860CBDE86D
:1051800070404CF0010C6047DFE80CF0090B0202A4
:105190004FF000414FF00000A1F5002170BD19460D
:1051A0001046012851EB010418BFD4F5001484BF48
:1051B000002001F0004170BD0808A0F500114FEA81
:1051C000310170472DE9F04101F5801CBCF5001F4D
:1051D000C0F2C3804FEA115C21EA0C510CF1FD0CC6
:1051E00041F480115FEA5C0C0CF5C07C01D34000F7
:1051F00049413DA4890241EA905187028E0E0A0C72
:10520000A45D04FB04F602FB06F6C6F14046A4FBCF
:105210000662F60D46EA422606FB06F4A4FB0123CD
:105220005242C3F1404338BF5B1EA6FB024200243A
:10523000E6FB0324D20B42EA4446A6FB0623A1FB6D
:1052400002E2A3FB07E4A4184FF0000252F10002AF
:10525000E3FB01426442C2F1404E38BFAEF1010EA1
:10526000A6FB04234FF00002E6FB0E32A2FB03462E
:105270004FF00004B61954F10004E2FB0264A1FBF4
:1052800006E6A4FB07E816EB08064FF0000858F105
:105290000008E4FB01687642C8F1405838BFA8F125
:1052A0000108A2FB06E4A3FB08E52D194FF000045A
:1052B00054F10004E2FB0854A1FB05E6A7FB04E857
:1052C00018EB06084FF0000656F10006E1FB0486D5
:1052D00018F1200556F10006A809A8F11B08B1092C
:1052E00008F03F08B8F10A0F40EA86601CD901EBCC
:1052F0000C51BDE8F08100BFFCF5EEE8E2DDD8D34B
:10530000CFCBC7C3C0BDB9B6B4B1AEACA9A7A5A336
:10531000A19F9D9B9A9896959392908F8D8C8B8947
:105320008887868584838281A0FB006800FB01F268
:1053300008EB4208B8EB872807D5341858EB01046E
:10534000D5D5401C51F10001D1E7341A78EB0104A6
:10535000CDD4401E71F10001C9E75FEA4C0C5FEA51
:105360009C5C0DD105D34FF0000001F00041BDE879
:10537000F081BDE8F04170B5FFF7D0FE6DDBFFBEF8
:10538000BDE8F0414FF00000004970470000F87F91
:1053900010B591EA030F48BF83F000433FF5F2AA2E
:1053A000841A71EB030C07D212198CF0004C43EBFA
:1053B0000C03001B61EB0C01DFF8A4E14FEA115470
:1053C000A4EB135C1EEA430F18BF9EEA445F00F093
:1053D000B08023EA6E03524221EA0451C3EB6E030C
:1053E00038BF5B1EDCF1200E25D322FA0CFE10EB39
:1053F0000E0043FA0CFE41EB0E01CCF1200E03FA35
:105400000EFE10EB0E0051F10001CCF1200E29D45C
:1054100012FA0EF201EB0451BDE8104058BF70477C
:10542000401C1CBFB2F1004F704700280CBF491C44
:1054300020F00100704712EB020E43EB030218BF8D
:105440004FF0010E4EEA4202ACF1200CDCF11E0ED0
:1054500054D943FA0CFE10EB0E0051F1FF31CCF1A0
:105460001E0ED5D50EF1010E12FA0EFE404141EB93
:10547000010101EB445C5FEA5C5C10D910EBDE706B
:1054800001EB045138BFBEF1004FBDE8104018BF1A
:10549000704700280CBF491C20F00100704730D233
:1054A0004FEAD42C11F5001124F400641BD0B1FA9A
:1054B00081F20B3AA41AA41ED2F12003914030FAD3
:1054C00003F31943904001EBCC71002C01EB045124
:1054D000BDE81040A8BF704701F1C0414FF0000087
:1054E00001F000417047B0FA80F310FA03F100D1E7
:1054F00010BDE41A173C4805C90AE4E701EB045162
:1055000010BD491001EB0451BDE810404FEA3000D6
:1055100002E04FF0000170474A0008BF0042F8D097
:10552000B2F5001F28BF704701F000414FF00000A6
:1055300070479EEA445F07D011EA5E0FBDE8104055
:1055400004BF002100207047BDE8104070B5FFF790
:10555000E5FD00BF40DFF63E83F000411046704796
:105560000000E0FF43004FEAD30C4FEA3C0C4340FD
:105570001FBF40070CF1605113F0FE4F70471CF045
:10558000006F03D100200CF0004170470CF0004385
:1055900043EA507010B540EACC0000F028FA00BF92
:1055A000000000924FEA0001FFF706BE4FF00041F5
:1055B0004FF00000A1F500217047000090EA010FB4
:1055C00048BF81F0004100F19682421A3CBF801A28
:1055D00089184FEAD0524FF07F4C1CEA410FA2EBE2
:1055E000D15318BF9CEA026F00F03B804FF0004C93
:1055F0004CEA00204CEA012121FA03FC10EB0C0CD0
:105600001ED202F1FF325FEA1C2040EBC25038BFCD
:1056100070471CF07F0F4FEA400C18BFBCF17F4F62
:1056200038BF7047C3F12003994008BF20F0010044
:10563000BCF17F4F38BF7047A0F1C04000F01DBAE9
:105640004FEA3C00000A40EBC25028BF1CF0FF0F9D
:105650004FEA400CE6D018BFBCF17F4F38BF70470F
:10566000EAE79CEA026F05D010EA5C0F08BF00F081
:105670000040704710B500F0BAF900BF64FBBE3EB1
:10568000401058BFC0F14040491058BFC1F14041DF
:105690008142EFF3008070474FF47F0C1CEAD01278
:1056A0001EBF1CEAD11392EA0C0F93EA0C0F00F014
:1056B000858090EA010F48BF42F4807240F4000CEC
:1056C00041F400002CF07F4120F07F4000B5814282
:1056D000A2EB03020FF2081CACEB504EC0F100002D
:1056E0009EF800E04FEA4E0E00FB0EFC38BF49006A
:1056F0004FEA2C1C02F5FA020CFB0EF34FEACE1E09
:105700004FEA112C4FEAC1210EEB635E42EB2242BD
:105710000EFB0CFC4FEA1C5300FB03114FEA112C4B
:105720004FEA01310EFB0CFC4FEADC4C00FB0C1184
:10573000C14228BF09184CEB03335DF804EB10EBB2
:10574000410143EBC250B2F57C0F38BF704729D5F9
:1057500012F0F00F1CBF00F1C04000F00040704795
:10576000008182838485868788898B8C8D8E8F913A
:105770009293959697999A9C9D9FA0A2A3A5A7A85E
:10578000AAACAEB0B2B3B5B7B9BCBEC0C2C5C7C98A
:10579000CCCED1D4D7D9DCDFE2E6E9ECF0F3F7FAEE
:1057A000FE0000004FEA400C0CF1807CBCF17E4F03
:1057B00028BF7047B0F1C04000F05FB990EA010F18
:1057C0000CEAD11348BF42F48072624538BF63458A
:1057D00007D213F47F0F16D080EA010000F00040DA
:1057E000704710B500F003F9097EFC3E00F005B8E3
:1057F00080EA010000F00040704780EA010000F0FC
:10580000004000F03AB912F47F0F04BF024870471D
:1058100080EA010000F031B90000C07F41000B0EAA
:10582000D3F19E0208D950F400034FEA032323FA70
:1058300002F048BF4042704710B500F0D8F800BFF2
:1058400049922480002070476FF0004282EA2000D5
:105850007047000010F0004148BF4042B0FA80F3AA
:1058600010FA03F2C3F19D030BD051EAC35101EBCF
:105870001220530638BF704700F1010008BF20F026
:105880000100704750EA010C00F113801CF5000F75
:1058900058BFBCF5000F01D48842704707D710F5F8
:1058A000000F58BF11F5000F15D488427047894288
:1058B00070471CF5000F04D5BCF5000FF7D58142E9
:1058C00070474FF0807C1CEB400F38BF1CEB410F42
:1058D00001D28142704710B500F089F89224490046
:1058E0004FF000504FF08051FFF7CABE4FF47F0CCD
:1058F0001CEAD0121EBF1CEAD11392EA0C0F93EAE5
:105900000C0F00F0478090EA010F48BF42F480720C
:105910004FF0004C4CEA00204CEA012102EB03025C
:10592000A0FB0113A2F50002002918BF43F00103F8
:105930005B0028BF4FEA330342EB22425FEA132C9D
:105940004CEBC2502EBFBCEB436FB2F57C0F7047DF
:105950004FEA036CBCF1004F08BF20F00100B2F524
:105960007C0F38BF70470BD582F0FF0212F5803FE5
:10597000C8BF704700F1C040D8BF00F0004070477A
:1059800000F5000C5FEA4C0C48BF7047B0F1C04016
:1059900000F073B890EA010F0CEAD11348BF42F44B
:1059A0008072624538BF634504D280EA010000F08E
:1059B0000040704710B500F01AF800BF8900013EA2
:1059C00000F007B800F009B85FEA410C5FEA1C6C10
:1059D00008D080EA010000F050B85FEA400C5FEAAE
:1059E0001C6CF6D14FF00040A0F5800070470EF11E
:1059F000020E2EF0030E5EF8044B244204D44FEA4C
:105A00004102B2F17F4F11D84FEA4003B3F17F4F0B
:105A10000CD80ED14FEAD07CB2F17F4F0CEB4C0C7E
:105A20000CF1020C08BF4CEBD17C04E04FF0080CE9
:105A300001E04FEAD17C0CEB4C0324FA03F404F0B0
:105A40000704B4F1040C06D20EEB840CBDE8104040
:105A50004CF0010C6047DFE80CF0070802024FF041
:105A60000040A0F5800010BD0846420018BFD2F1EA
:105A7000807288BF00F0004010BDFF2141EAD05085
:105A8000C005704751EA000C00F113801CF5000FAF
:105A900058BFBCF5000F01D48142704707D711F5FC
:105AA000000F58BF10F5000F15D48142704789428E
:105AB00070471CF5000F04D5BCF5000FF7D58842E0
:105AC00070474FF0807C1CEB410F38BF1CEB400F40
:105AD00001D28842704780EA010081EA000180EA31
